{
  "_format": "hh-sol-artifact-1",
  "contractName": "CertificateVerification",
  "sourceName": "contracts/CertificateVerification.sol",
  "abi": [
    {
      "anonymous": false,
      "inputs": [
        {
          "indexed": true,
          "internalType": "bytes32",
          "name": "certificateHash",
          "type": "bytes32"
        }
      ],
      "name": "CertificateRevoked",
      "type": "event"
    },
    {
      "anonymous": false,
      "inputs": [
        {
          "indexed": true,
          "internalType": "bytes32",
          "name": "certificateHash",
          "type": "bytes32"
        },
        {
          "indexed": true,
          "internalType": "address",
          "name": "issuer",
          "type": "address"
        },
        {
          "indexed": false,
          "internalType": "string",
          "name": "studentName",
          "type": "string"
        },
        {
          "indexed": false,
          "internalType": "string",
          "name": "university",
          "type": "string"
        },
        {
          "indexed": false,
          "internalType": "uint256",
          "name": "timestamp",
          "type": "uint256"
        }
      ],
      "name": "CertificateStored",
      "type": "event"
    },
    {
      "anonymous": false,
      "inputs": [
        {
          "indexed": true,
          "internalType": "address",
          "name": "issuer",
          "type": "address"
        },
        {
          "indexed": false,
          "internalType": "string",
          "name": "university",
          "type": "string"
        }
      ],
      "name": "IssuerAuthorized",
      "type": "event"
    },
    {
      "inputs": [
        {
          "internalType": "address",
          "name": "_issuer",
          "type": "address"
        },
        {
          "internalType": "string",
          "name": "_university",
          "type": "string"
        }
      ],
      "name": "authorizeIssuer",
      "outputs": [],
      "stateMutability": "nonpayable",
      "type": "function"
    },
    {
      "inputs": [
        {
          "internalType": "address",
          "name": "",
          "type": "address"
        }
      ],
      "name": "authorizedIssuers",
      "outputs": [
        {
          "internalType": "string",
          "name": "",
          "type": "string"
        }
      ],
      "stateMutability": "view",
      "type": "function"
    },
    {
      "inputs": [
        {
          "internalType": "bytes32",
          "name": "",
          "type": "bytes32"
        }
      ],
      "name": "certificateExists",
      "outputs": [
        {
          "internalType": "bool",
          "name": "",
          "type": "bool"
        }
      ],
      "stateMutability": "view",
      "type": "function"
    },
    {
      "inputs": [
        {
          "internalType": "bytes32",
          "name": "",
          "type": "bytes32"
        }
      ],
      "name": "certificates",
      "outputs": [
        {
          "internalType": "string",
          "name": "studentName",
          "type": "string"
        },
        {
          "internalType": "string",
          "name": "studentId",
          "type": "string"
        },
        {
          "internalType": "string",
          "name": "degree",
          "type": "string"
        },
        {
          "internalType": "string",
          "name": "university",
          "type": "string"
        },
        {
          "internalType": "string",
          "name": "ipfsHash",
          "type": "string"
        },
        {
          "internalType": "address",
          "name": "issuer",
          "type": "address"
        },
        {
          "internalType": "uint256",
          "name": "timestamp",
          "type": "uint256"
        },
        {
          "internalType": "bool",
          "name": "isValid",
          "type": "bool"
        }
      ],
      "stateMutability": "view",
      "type": "function"
    },
    {
      "inputs": [
        {
          "internalType": "bytes32",
          "name": "_certificateHash",
          "type": "bytes32"
        }
      ],
      "name": "getCertificateDetails",
      "outputs": [
        {
          "internalType": "string",
          "name": "studentName",
          "type": "string"
        },
        {
          "internalType": "string",
          "name": "studentId",
          "type": "string"
        },
        {
          "internalType": "string",
          "name": "degree",
          "type": "string"
        },
        {
          "internalType": "string",
          "name": "university",
          "type": "string"
        },
        {
          "internalType": "string",
          "name": "ipfsHash",
          "type": "string"
        },
        {
          "internalType": "address",
          "name": "issuer",
          "type": "address"
        },
        {
          "internalType": "uint256",
          "name": "timestamp",
          "type": "uint256"
        },
        {
          "internalType": "bool",
          "name": "isValid",
          "type": "bool"
        }
      ],
      "stateMutability": "view",
      "type": "function"
    },
    {
      "inputs": [
        {
          "internalType": "address",
          "name": "_issuer",
          "type": "address"
        }
      ],
      "name": "getUniversityByIssuer",
      "outputs": [
        {
          "internalType": "string",
          "name": "",
          "type": "string"
        }
      ],
      "stateMutability": "view",
      "type": "function"
    },
    {
      "inputs": [
        {
          "internalType": "bytes32",
          "name": "_certificateHash",
          "type": "bytes32"
        }
      ],
      "name": "isCertificateValid",
      "outputs": [
        {
          "internalType": "bool",
          "name": "",
          "type": "bool"
        }
      ],
      "stateMutability": "view",
      "type": "function"
    },
    {
      "inputs": [
        {
          "internalType": "bytes32",
          "name": "_certificateHash",
          "type": "bytes32"
        }
      ],
      "name": "revokeCertificate",
      "outputs": [],
      "stateMutability": "nonpayable",
      "type": "function"
    },
    {
      "inputs": [
        {
          "internalType": "bytes32",
          "name": "_certificateHash",
          "type": "bytes32"
        },
        {
          "internalType": "string",
          "name": "_studentName",
          "type": "string"
        },
        {
          "internalType": "string",
          "name": "_studentId",
          "type": "string"
        },
        {
          "internalType": "string",
          "name": "_degree",
          "type": "string"
        },
        {
          "internalType": "string",
          "name": "_ipfsHash",
          "type": "string"
        }
      ],
      "name": "storeCertificate",
      "outputs": [],
      "stateMutability": "nonpayable",
      "type": "function"
    },
    {
      "inputs": [
        {
          "internalType": "bytes32",
          "name": "_certificateHash",
          "type": "bytes32"
        }
      ],
      "name": "verifyCertificate",
      "outputs": [
        {
          "components": [
            {
              "internalType": "string",
              "name": "studentName",
              "type": "string"
            },
            {
              "internalType": "string",
              "name": "studentId",
              "type": "string"
            },
            {
              "internalType": "string",
              "name": "degree",
              "type": "string"
            },
            {
              "internalType": "string",
              "name": "university",
              "type": "string"
            },
            {
              "internalType": "string",
              "name": "ipfsHash",
              "type": "string"
            },
            {
              "internalType": "address",
              "name": "issuer",
              "type": "address"
            },
            {
              "internalType": "uint256",
              "name": "timestamp",
              "type": "uint256"
            },
            {
              "internalType": "bool",
              "name": "isValid",
              "type": "bool"
            }
          ],
          "internalType": "struct CertificateVerification.Certificate",
          "name": "",
          "type": "tuple"
        }
      ],
      "stateMutability": "view",
      "type": "function"
    }
  ],
  "bytecode": "0x6080604052348015600f57600080fd5b506124728061001f6000396000f3fe608060405234801561001057600080fd5b506004361061009e5760003560e01c8063ac15f0ac11610066578063ac15f0ac14610186578063b440983e146101bd578063b79c1352146101ed578063c6cbc52a14610209578063f731fa0f146102255761009e565b806305714099146100a35780636bd6cf3f146100d3578063742f0688146101035780637f8d3a3c1461013a578063850c176814610156575b600080fd5b6100bd60048036038101906100b891906116eb565b610255565b6040516100ca9190611733565b60405180910390f35b6100ed60048036038101906100e891906117ac565b6102b0565b6040516100fa9190611869565b60405180910390f35b61011d600480360381019061011891906116eb565b610381565b6040516101319897969594939291906118b3565b60405180910390f35b610154600480360381019061014f9190611a89565b61069e565b005b610170600480360381019061016b91906116eb565b61073d565b60405161017d9190611c28565b60405180910390f35b6101a0600480360381019061019b91906116eb565b610b21565b6040516101b49897969594939291906118b3565b60405180910390f35b6101d760048036038101906101d291906116eb565b610f4b565b6040516101e49190611733565b60405180910390f35b61020760048036038101906102029190611c4a565b610f6b565b005b610223600480360381019061021e91906116eb565b611441565b005b61023f600480360381019061023a91906117ac565b6115a4565b60405161024c9190611869565b60405180910390f35b60006001600083815260200190815260200160002060009054906101000a900460ff1661028557600090506102ab565b60008083815260200190815260200160002060070160009054906101000a900460ff1690505b919050565b6060600260008373ffffffffffffffffffffffffffffffffffffffff1673ffffffffffffffffffffffffffffffffffffffff16815260200190815260200160002080546102fc90611d64565b80601f016020809104026020016040519081016040528092919081815260200182805461032890611d64565b80156103755780601f1061034a57610100808354040283529160200191610375565b820191906000526020600020905b81548152906001019060200180831161035857829003601f168201915b50505050509050919050565b60006020528060005260406000206000915090508060000180546103a490611d64565b80601f01602080910402602001604051908101604052809291908181526020018280546103d090611d64565b801561041d5780601f106103f25761010080835404028352916020019161041d565b820191906000526020600020905b81548152906001019060200180831161040057829003601f168201915b50505050509080600101805461043290611d64565b80601f016020809104026020016040519081016040528092919081815260200182805461045e90611d64565b80156104ab5780601f10610480576101008083540402835291602001916104ab565b820191906000526020600020905b81548152906001019060200180831161048e57829003601f168201915b5050505050908060020180546104c090611d64565b80601f01602080910402602001604051908101604052809291908181526020018280546104ec90611d64565b80156105395780601f1061050e57610100808354040283529160200191610539565b820191906000526020600020905b81548152906001019060200180831161051c57829003601f168201915b50505050509080600301805461054e90611d64565b80601f016020809104026020016040519081016040528092919081815260200182805461057a90611d64565b80156105c75780601f1061059c576101008083540402835291602001916105c7565b820191906000526020600020905b8154815290600101906020018083116105aa57829003601f168201915b5050505050908060040180546105dc90611d64565b80601f016020809104026020016040519081016040528092919081815260200182805461060890611d64565b80156106555780601f1061062a57610100808354040283529160200191610655565b820191906000526020600020905b81548152906001019060200180831161063857829003601f168201915b5050505050908060050160009054906101000a900473ffffffffffffffffffffffffffffffffffffffff16908060060154908060070160009054906101000a900460ff16905088565b80600260008473ffffffffffffffffffffffffffffffffffffffff1673ffffffffffffffffffffffffffffffffffffffff16815260200190815260200160002090816106ea9190611f41565b508173ffffffffffffffffffffffffffffffffffffffff167f4a1726c837046486d7e0af20814f9e585c72cfaa1c46e87414677bc7baab9be2826040516107319190611869565b60405180910390a25050565b610745611644565b816001600082815260200190815260200160002060009054906101000a900460ff166107a6576040517f08c379a000000000000000000000000000000000000000000000000000000000815260040161079d9061205f565b60405180910390fd5b600080848152602001908152602001600020604051806101000160405290816000820180546107d490611d64565b80601f016020809104026020016040519081016040528092919081815260200182805461080090611d64565b801561084d5780601f106108225761010080835404028352916020019161084d565b820191906000526020600020905b81548152906001019060200180831161083057829003601f168201915b5050505050815260200160018201805461086690611d64565b80601f016020809104026020016040519081016040528092919081815260200182805461089290611d64565b80156108df5780601f106108b4576101008083540402835291602001916108df565b820191906000526020600020905b8154815290600101906020018083116108c257829003601f168201915b505050505081526020016002820180546108f890611d64565b80601f016020809104026020016040519081016040528092919081815260200182805461092490611d64565b80156109715780601f1061094657610100808354040283529160200191610971565b820191906000526020600020905b81548152906001019060200180831161095457829003601f168201915b5050505050815260200160038201805461098a90611d64565b80601f01602080910402602001604051908101604052809291908181526020018280546109b690611d64565b8015610a035780601f106109d857610100808354040283529160200191610a03565b820191906000526020600020905b8154815290600101906020018083116109e657829003601f168201915b50505050508152602001600482018054610a1c90611d64565b80601f0160208091040260200160405190810160405280929190818152602001828054610a4890611d64565b8015610a955780601f10610a6a57610100808354040283529160200191610a95565b820191906000526020600020905b815481529060010190602001808311610a7857829003601f168201915b505050505081526020016005820160009054906101000a900473ffffffffffffffffffffffffffffffffffffffff1673ffffffffffffffffffffffffffffffffffffffff1673ffffffffffffffffffffffffffffffffffffffff168152602001600682015481526020016007820160009054906101000a900460ff161515151581525050915050919050565b60608060608060606000806000886001600082815260200190815260200160002060009054906101000a900460ff16610b8f576040517f08c379a0000000000000000000000000000000000000000000000000000000008152600401610b869061205f565b60405180910390fd5b60008060008c815260200190815260200160002060405180610100016040529081600082018054610bbf90611d64565b80601f0160208091040260200160405190810160405280929190818152602001828054610beb90611d64565b8015610c385780601f10610c0d57610100808354040283529160200191610c38565b820191906000526020600020905b815481529060010190602001808311610c1b57829003601f168201915b50505050508152602001600182018054610c5190611d64565b80601f0160208091040260200160405190810160405280929190818152602001828054610c7d90611d64565b8015610cca5780601f10610c9f57610100808354040283529160200191610cca565b820191906000526020600020905b815481529060010190602001808311610cad57829003601f168201915b50505050508152602001600282018054610ce390611d64565b80601f0160208091040260200160405190810160405280929190818152602001828054610d0f90611d64565b8015610d5c5780601f10610d3157610100808354040283529160200191610d5c565b820191906000526020600020905b815481529060010190602001808311610d3f57829003601f168201915b50505050508152602001600382018054610d7590611d64565b80601f0160208091040260200160405190810160405280929190818152602001828054610da190611d64565b8015610dee5780601f10610dc357610100808354040283529160200191610dee565b820191906000526020600020905b815481529060010190602001808311610dd157829003601f168201915b50505050508152602001600482018054610e0790611d64565b80601f0160208091040260200160405190810160405280929190818152602001828054610e3390611d64565b8015610e805780601f10610e5557610100808354040283529160200191610e80565b820191906000526020600020905b815481529060010190602001808311610e6357829003601f168201915b505050505081526020016005820160009054906101000a900473ffffffffffffffffffffffffffffffffffffffff1673ffffffffffffffffffffffffffffffffffffffff1673ffffffffffffffffffffffffffffffffffffffff168152602001600682015481526020016007820160009054906101000a900460ff1615151515815250509050806000015181602001518260400151836060015184608001518560a001518660c001518760e00151995099509950995099509950995099505050919395975091939597565b60016020528060005260406000206000915054906101000a900460ff1681565b6000600260003373ffffffffffffffffffffffffffffffffffffffff1673ffffffffffffffffffffffffffffffffffffffff1681526020019081526020016000208054610fb790611d64565b905011610ff9576040517f08c379a0000000000000000000000000000000000000000000000000000000008152600401610ff0906120cb565b60405180910390fd5b6001600086815260200190815260200160002060009054906101000a900460ff161561105a576040517f08c379a000000000000000000000000000000000000000000000000000000000815260040161105190612137565b60405180910390fd5b600084511161109e576040517f08c379a0000000000000000000000000000000000000000000000000000000008152600401611095906121a3565b60405180910390fd5b60008351116110e2576040517f08c379a00000000000000000000000000000000000000000000000000000000081526004016110d99061220f565b60405180910390fd5b6000825111611126576040517f08c379a000000000000000000000000000000000000000000000000000000000815260040161111d9061227b565b60405180910390fd5b600081511161116a576040517f08c379a0000000000000000000000000000000000000000000000000000000008152600401611161906122e7565b60405180910390fd5b6000604051806101000160405280868152602001858152602001848152602001600260003373ffffffffffffffffffffffffffffffffffffffff1673ffffffffffffffffffffffffffffffffffffffff16815260200190815260200160002080546111d490611d64565b80601f016020809104026020016040519081016040528092919081815260200182805461120090611d64565b801561124d5780601f106112225761010080835404028352916020019161124d565b820191906000526020600020905b81548152906001019060200180831161123057829003601f168201915b505050505081526020018381526020013373ffffffffffffffffffffffffffffffffffffffff1681526020014281526020016001151581525090508060008088815260200190815260200160002060008201518160000190816112b09190611f41565b5060208201518160010190816112c69190611f41565b5060408201518160020190816112dc9190611f41565b5060608201518160030190816112f29190611f41565b5060808201518160040190816113089190611f41565b5060a08201518160050160006101000a81548173ffffffffffffffffffffffffffffffffffffffff021916908373ffffffffffffffffffffffffffffffffffffffff16021790555060c0820151816006015560e08201518160070160006101000a81548160ff021916908315150217905550905050600180600088815260200190815260200160002060006101000a81548160ff0219169083151502179055503373ffffffffffffffffffffffffffffffffffffffff16867f0af35722f441a3a626bd4b287243acb622dd0ccbf8ddbc197106457cf870ce9487600260003373ffffffffffffffffffffffffffffffffffffffff1673ffffffffffffffffffffffffffffffffffffffff168152602001908152602001600020426040516114319392919061238b565b60405180910390a3505050505050565b806001600082815260200190815260200160002060009054906101000a900460ff166114a2576040517f08c379a00000000000000000000000000000000000000000000000000000000081526004016114999061205f565b60405180910390fd5b3373ffffffffffffffffffffffffffffffffffffffff1660008084815260200190815260200160002060050160009054906101000a900473ffffffffffffffffffffffffffffffffffffffff1673ffffffffffffffffffffffffffffffffffffffff1614611545576040517f08c379a000000000000000000000000000000000000000000000000000000000815260040161153c9061241c565b60405180910390fd5b600080600084815260200190815260200160002060070160006101000a81548160ff021916908315150217905550817f44d80a438cb4fa3b5aedbe551ce3d9382e37f446917b783e1dee70a03b4180e360405160405180910390a25050565b600260205280600052604060002060009150905080546115c390611d64565b80601f01602080910402602001604051908101604052809291908181526020018280546115ef90611d64565b801561163c5780601f106116115761010080835404028352916020019161163c565b820191906000526020600020905b81548152906001019060200180831161161f57829003601f168201915b505050505081565b6040518061010001604052806060815260200160608152602001606081526020016060815260200160608152602001600073ffffffffffffffffffffffffffffffffffffffff168152602001600081526020016000151581525090565b6000604051905090565b600080fd5b600080fd5b6000819050919050565b6116c8816116b5565b81146116d357600080fd5b50565b6000813590506116e5816116bf565b92915050565b600060208284031215611701576117006116ab565b5b600061170f848285016116d6565b91505092915050565b60008115159050919050565b61172d81611718565b82525050565b60006020820190506117486000830184611724565b92915050565b600073ffffffffffffffffffffffffffffffffffffffff82169050919050565b60006117798261174e565b9050919050565b6117898161176e565b811461179457600080fd5b50565b6000813590506117a681611780565b92915050565b6000602082840312156117c2576117c16116ab565b5b60006117d084828501611797565b91505092915050565b600081519050919050565b600082825260208201905092915050565b60005b838110156118135780820151818401526020810190506117f8565b60008484015250505050565b6000601f19601f8301169050919050565b600061183b826117d9565b61184581856117e4565b93506118558185602086016117f5565b61185e8161181f565b840191505092915050565b600060208201905081810360008301526118838184611830565b905092915050565b6118948161176e565b82525050565b6000819050919050565b6118ad8161189a565b82525050565b60006101008201905081810360008301526118ce818b611830565b905081810360208301526118e2818a611830565b905081810360408301526118f68189611830565b9050818103606083015261190a8188611830565b9050818103608083015261191e8187611830565b905061192d60a083018661188b565b61193a60c08301856118a4565b61194760e0830184611724565b9998505050505050505050565b600080fd5b600080fd5b7f4e487b7100000000000000000000000000000000000000000000000000000000600052604160045260246000fd5b6119968261181f565b810181811067ffffffffffffffff821117156119b5576119b461195e565b5b80604052505050565b60006119c86116a1565b90506119d4828261198d565b919050565b600067ffffffffffffffff8211156119f4576119f361195e565b5b6119fd8261181f565b9050602081019050919050565b82818337600083830152505050565b6000611a2c611a27846119d9565b6119be565b905082815260208101848484011115611a4857611a47611959565b5b611a53848285611a0a565b509392505050565b600082601f830112611a7057611a6f611954565b5b8135611a80848260208601611a19565b91505092915050565b60008060408385031215611aa057611a9f6116ab565b5b6000611aae85828601611797565b925050602083013567ffffffffffffffff811115611acf57611ace6116b0565b5b611adb85828601611a5b565b9150509250929050565b600082825260208201905092915050565b6000611b01826117d9565b611b0b8185611ae5565b9350611b1b8185602086016117f5565b611b248161181f565b840191505092915050565b611b388161176e565b82525050565b611b478161189a565b82525050565b611b5681611718565b82525050565b6000610100830160008301518482036000860152611b7a8282611af6565b91505060208301518482036020860152611b948282611af6565b91505060408301518482036040860152611bae8282611af6565b91505060608301518482036060860152611bc88282611af6565b91505060808301518482036080860152611be28282611af6565b91505060a0830151611bf760a0860182611b2f565b5060c0830151611c0a60c0860182611b3e565b5060e0830151611c1d60e0860182611b4d565b508091505092915050565b60006020820190508181036000830152611c428184611b5c565b905092915050565b600080600080600060a08688031215611c6657611c656116ab565b5b6000611c74888289016116d6565b955050602086013567ffffffffffffffff811115611c9557611c946116b0565b5b611ca188828901611a5b565b945050604086013567ffffffffffffffff811115611cc257611cc16116b0565b5b611cce88828901611a5b565b935050606086013567ffffffffffffffff811115611cef57611cee6116b0565b5b611cfb88828901611a5b565b925050608086013567ffffffffffffffff811115611d1c57611d1b6116b0565b5b611d2888828901611a5b565b9150509295509295909350565b7f4e487b7100000000000000000000000000000000000000000000000000000000600052602260045260246000fd5b60006002820490506001821680611d7c57607f821691505b602082108103611d8f57611d8e611d35565b5b50919050565b60008190508160005260206000209050919050565b60006020601f8301049050919050565b600082821b905092915050565b600060088302611df77fffffffffffffffffffffffffffffffffffffffffffffffffffffffffffffffff82611dba565b611e018683611dba565b95508019841693508086168417925050509392505050565b6000819050919050565b6000611e3e611e39611e348461189a565b611e19565b61189a565b9050919050565b6000819050919050565b611e5883611e23565b611e6c611e6482611e45565b848454611dc7565b825550505050565b600090565b611e81611e74565b611e8c818484611e4f565b505050565b5b81811015611eb057611ea5600082611e79565b600181019050611e92565b5050565b601f821115611ef557611ec681611d95565b611ecf84611daa565b81016020851015611ede578190505b611ef2611eea85611daa565b830182611e91565b50505b505050565b600082821c905092915050565b6000611f1860001984600802611efa565b1980831691505092915050565b6000611f318383611f07565b9150826002028217905092915050565b611f4a826117d9565b67ffffffffffffffff811115611f6357611f6261195e565b5b611f6d8254611d64565b611f78828285611eb4565b600060209050601f831160018114611fab5760008415611f99578287015190505b611fa38582611f25565b86555061200b565b601f198416611fb986611d95565b60005b82811015611fe157848901518255600182019150602085019450602081019050611fbc565b86831015611ffe5784890151611ffa601f891682611f07565b8355505b6001600288020188555050505b505050505050565b7f436572746966696361746520646f6573206e6f74206578697374000000000000600082015250565b6000612049601a836117e4565b915061205482612013565b602082019050919050565b600060208201905081810360008301526120788161203c565b9050919050565b7f4e6f7420616e20617574686f72697a6564206973737565720000000000000000600082015250565b60006120b56018836117e4565b91506120c08261207f565b602082019050919050565b600060208201905081810360008301526120e4816120a8565b9050919050565b7f436572746966696361746520616c726561647920657869737473000000000000600082015250565b6000612121601a836117e4565b915061212c826120eb565b602082019050919050565b6000602082019050818103600083015261215081612114565b9050919050565b7f53747564656e74206e616d652063616e6e6f7420626520656d70747900000000600082015250565b600061218d601c836117e4565b915061219882612157565b602082019050919050565b600060208201905081810360008301526121bc81612180565b9050919050565b7f53747564656e742049442063616e6e6f7420626520656d707479000000000000600082015250565b60006121f9601a836117e4565b9150612204826121c3565b602082019050919050565b60006020820190508181036000830152612228816121ec565b9050919050565b7f4465677265652063616e6e6f7420626520656d70747900000000000000000000600082015250565b60006122656016836117e4565b91506122708261222f565b602082019050919050565b6000602082019050818103600083015261229481612258565b9050919050565b7f4950465320686173682063616e6e6f7420626520656d70747900000000000000600082015250565b60006122d16019836117e4565b91506122dc8261229b565b602082019050919050565b60006020820190508181036000830152612300816122c4565b9050919050565b6000815461231481611d64565b61231e81866117e4565b94506001821660008114612339576001811461234f57612382565b60ff198316865281151560200286019350612382565b61235885611d95565b60005b8381101561237a5781548189015260018201915060208101905061235b565b808801955050505b50505092915050565b600060608201905081810360008301526123a58186611830565b905081810360208301526123b98185612307565b90506123c860408301846118a4565b949350505050565b7f4f6e6c79206973737565722063616e207265766f6b6500000000000000000000600082015250565b60006124066016836117e4565b9150612411826123d0565b602082019050919050565b60006020820190508181036000830152612435816123f9565b905091905056fea2646970667358221220e5ea0bcbb221ceeabaa866dbadab0e09e75d51b7731e6755da4ac6a29bfc19eb64736f6c634300081b0033",
  "linkReferences": {},
  "deployedLinkReferences": {}
}